{
    "contractName": "StakeApp",
    "abi": [
        {
            "inputs": [
                {
                    "internalType": "address",
                    "name": "tokenAddress",
                    "type": "address"
                }
            ],
            "stateMutability": "nonpayable",
            "type": "constructor"
        },
        {
            "anonymous": false,
            "inputs": [
                {
                    "indexed": false,
                    "internalType": "uint256",
                    "name": "amount",
                    "type": "uint256"
                },
                {
                    "indexed": false,
                    "internalType": "address",
                    "name": "fromAccount",
                    "type": "address"
                }
            ],
            "name": "ReceivedTokens",
            "type": "event"
        },
        {
            "anonymous": false,
            "inputs": [
                {
                    "indexed": false,
                    "internalType": "address",
                    "name": "_from",
                    "type": "address"
                },
                {
                    "indexed": false,
                    "internalType": "uint256",
                    "name": "_value",
                    "type": "uint256"
                },
                {
                    "indexed": false,
                    "internalType": "string",
                    "name": "did",
                    "type": "string"
                }
            ],
            "name": "StakeEvent",
            "type": "event"
        },
        {
            "anonymous": false,
            "inputs": [
                {
                    "indexed": false,
                    "internalType": "address",
                    "name": "_from",
                    "type": "address"
                },
                {
                    "indexed": false,
                    "internalType": "uint256",
                    "name": "_value",
                    "type": "uint256"
                },
                {
                    "indexed": false,
                    "internalType": "string",
                    "name": "did",
                    "type": "string"
                }
            ],
            "name": "UnStakeEvent",
            "type": "event"
        },
        {
            "inputs": [],
            "name": "balanceOfOwner",
            "outputs": [
                {
                    "internalType": "uint256",
                    "name": "",
                    "type": "uint256"
                }
            ],
            "stateMutability": "view",
            "type": "function",
            "constant": true
        },
        {
            "inputs": [
                {
                    "internalType": "address",
                    "name": "_address",
                    "type": "address"
                }
            ],
            "name": "balanceOf",
            "outputs": [
                {
                    "internalType": "uint256",
                    "name": "",
                    "type": "uint256"
                }
            ],
            "stateMutability": "view",
            "type": "function",
            "constant": true
        },
        {
            "inputs": [],
            "name": "getMyStakes",
            "outputs": [
                {
                    "components": [
                        {
                            "internalType": "string",
                            "name": "assetAddress",
                            "type": "string"
                        },
                        {
                            "internalType": "uint256",
                            "name": "amount",
                            "type": "uint256"
                        }
                    ],
                    "internalType": "struct StakeApp.AssetStake[]",
                    "name": "",
                    "type": "tuple[]"
                }
            ],
            "stateMutability": "view",
            "type": "function",
            "constant": true
        },
        {
            "inputs": [
                {
                    "internalType": "address",
                    "name": "_address",
                    "type": "address"
                }
            ],
            "name": "getStakesOf",
            "outputs": [
                {
                    "components": [
                        {
                            "internalType": "string",
                            "name": "assetAddress",
                            "type": "string"
                        },
                        {
                            "internalType": "uint256",
                            "name": "amount",
                            "type": "uint256"
                        }
                    ],
                    "internalType": "struct StakeApp.AssetStake[]",
                    "name": "",
                    "type": "tuple[]"
                }
            ],
            "stateMutability": "view",
            "type": "function",
            "constant": true
        },
        {
            "inputs": [
                {
                    "internalType": "string[]",
                    "name": "dids",
                    "type": "string[]"
                }
            ],
            "name": "getAllStakes",
            "outputs": [
                {
                    "components": [
                        {
                            "internalType": "uint256",
                            "name": "count",
                            "type": "uint256"
                        },
                        {
                            "internalType": "uint256",
                            "name": "amount",
                            "type": "uint256"
                        }
                    ],
                    "internalType": "struct StakeApp.UserStakes[]",
                    "name": "",
                    "type": "tuple[]"
                }
            ],
            "stateMutability": "view",
            "type": "function",
            "constant": true
        },
        {
            "inputs": [
                {
                    "internalType": "uint256",
                    "name": "_amount",
                    "type": "uint256"
                },
                {
                    "internalType": "string",
                    "name": "_did",
                    "type": "string"
                }
            ],
            "name": "addStake",
            "outputs": [],
            "stateMutability": "payable",
            "type": "function",
            "payable": true
        },
        {
            "inputs": [
                {
                    "internalType": "string",
                    "name": "_did",
                    "type": "string"
                }
            ],
            "name": "unStake",
            "outputs": [],
            "stateMutability": "nonpayable",
            "type": "function"
        }
    ],
    "bytecode": "0x60806040523480156200001157600080fd5b5060405162001be838038062001be8833981810160405262000037919081019062000095565b806000806101000a81548173ffffffffffffffffffffffffffffffffffffffff021916908373ffffffffffffffffffffffffffffffffffffffff160217905550506200010f565b6000815190506200008f81620000f5565b92915050565b600060208284031215620000a857600080fd5b6000620000b8848285016200007e565b91505092915050565b6000620000ce82620000d5565b9050919050565b600073ffffffffffffffffffffffffffffffffffffffff82169050919050565b6200010081620000c1565b81146200010c57600080fd5b50565b611ac9806200011f6000396000f3fe6080604052600436106100705760003560e01c806397a4861a1161004e57806397a4861a1461011a578063b288b06714610145578063f78fd96b14610161578063fafc08c41461018a57610070565b80634975d2021461007557806370a08231146100a057806391cdcefe146100dd575b600080fd5b34801561008157600080fd5b5061008a6101c7565b604051610097919061182c565b60405180910390f35b3480156100ac57600080fd5b506100c760048036036100c29190810190611299565b610278565b6040516100d4919061182c565b60405180910390f35b3480156100e957600080fd5b5061010460048036036100ff91908101906112c2565b6102c1565b60405161011191906117ea565b60405180910390f35b34801561012657600080fd5b5061012f61038f565b60405161013c91906117c8565b60405180910390f35b61015f600480360361015a919081019061139a565b6104d7565b005b34801561016d57600080fd5b506101886004803603610183919081019061132c565b610949565b005b34801561019657600080fd5b506101b160048036036101ac9190810190611299565b610d18565b6040516101be91906117c8565b60405180910390f35b60008060009054906101000a900473ffffffffffffffffffffffffffffffffffffffff1673ffffffffffffffffffffffffffffffffffffffff166370a08231306040518263ffffffff1660e01b8152600401610223919061170d565b60206040518083038186803b15801561023b57600080fd5b505afa15801561024f573d6000803e3d6000fd5b505050506040513d601f19601f820116820180604052506102739190810190611371565b905090565b6000600160008373ffffffffffffffffffffffffffffffffffffffff1673ffffffffffffffffffffffffffffffffffffffff168152602001908152602001600020549050919050565b60608082516040519080825280602002602001820160405280156102ff57816020015b6102ec610fa5565b8152602001906001900390816102e45790505b50905060008090505b835181101561038557600384828151811061031f57fe5b602002602001015160405161033491906116df565b90815260200160405180910390206040518060400160405290816000820154815260200160018201548152505082828151811061036d57fe5b60200260200101819052508080600101915050610308565b5080915050919050565b6060600260003373ffffffffffffffffffffffffffffffffffffffff1673ffffffffffffffffffffffffffffffffffffffff168152602001908152602001600020805480602002602001604051908101604052809291908181526020016000905b828210156104ce5783829060005260206000209060020201604051806040016040529081600082018054600181600116156101000203166002900480601f0160208091040260200160405190810160405280929190818152602001828054600181600116156101000203166002900480156104ac5780601f10610481576101008083540402835291602001916104ac565b820191906000526020600020905b81548152906001019060200180831161048f57829003601f168201915b50505050508152602001600182015481525050815260200190600101906103f0565b50505050905090565b6000809054906101000a900473ffffffffffffffffffffffffffffffffffffffff1673ffffffffffffffffffffffffffffffffffffffff166323b872dd3330866040518463ffffffff1660e01b815260040161053593929190611728565b602060405180830381600087803b15801561054f57600080fd5b505af1158015610563573d6000803e3d6000fd5b505050506040513d601f19601f820116820180604052506105879190810190611303565b506000600260003373ffffffffffffffffffffffffffffffffffffffff1673ffffffffffffffffffffffffffffffffffffffff168152602001908152602001600020905083600160003373ffffffffffffffffffffffffffffffffffffffff1673ffffffffffffffffffffffffffffffffffffffff1681526020019081526020016000206000828254019250508190555060008090505b81805490508110156107f55761072d82828154811061063957fe5b90600052602060002090600202016000018054600181600116156101000203166002900480601f0160208091040260200160405190810160405280929190818152602001828054600181600116156101000203166002900480156106de5780601f106106b3576101008083540402835291602001916106de565b820191906000526020600020905b8154815290600101906020018083116106c157829003601f168201915b505050505085858080601f016020809104026020016040519081016040528093929190818152602001838380828437600081840152601f19601f82011690508083019250505050505050610e62565b156107e85784600385856040516107459291906116c6565b9081526020016040518091039020600101600082825401925050819055508482828154811061077057fe5b9060005260206000209060020201600101540182828154811061078f57fe5b9060005260206000209060020201600101819055507ffd8a914713b7a469f0e461610ed8e0663b615ccd76d90d133e5b1ef9c934853b338686866040516107d9949392919061175f565b60405180910390a15050610944565b808060010191505061061e565b5080604051806040016040528085858080601f016020809104026020016040519081016040528093929190818152602001838380828437600081840152601f19601f8201169050808301925050505050505081526020018681525090806001815401808255809150506001900390600052602060002090600202016000909190919091506000820151816000019080519060200190610895929190610fbf565b5060208201518160010155505083600384846040516108b59291906116c6565b9081526020016040518091039020600101600082825401925050819055506001600384846040516108e79291906116c6565b9081526020016040518091039020600001600082825401925050819055507ffd8a914713b7a469f0e461610ed8e0663b615ccd76d90d133e5b1ef9c934853b3385858560405161093a949392919061175f565b60405180910390a1505b505050565b6000600260003373ffffffffffffffffffffffffffffffffffffffff1673ffffffffffffffffffffffffffffffffffffffff16815260200190815260200160002090506000809050600090505b8180549050811015610cd957610aa58282815481106109b157fe5b90600052602060002090600202016000018054600181600116156101000203166002900480601f016020809104026020016040519081016040528092919081815260200182805460018160011615610100020316600290048015610a565780601f10610a2b57610100808354040283529160200191610a56565b820191906000526020600020905b815481529060010190602001808311610a3957829003601f168201915b505050505085858080601f016020809104026020016040519081016040528093929190818152602001838380828437600081840152601f19601f82011690508083019250505050505050610e62565b15610ccc576000809054906101000a900473ffffffffffffffffffffffffffffffffffffffff1673ffffffffffffffffffffffffffffffffffffffff1663a9059cbb33848481548110610af457fe5b9060005260206000209060020201600101546040518363ffffffff1660e01b8152600401610b2392919061179f565b602060405180830381600087803b158015610b3d57600080fd5b505af1158015610b51573d6000803e3d6000fd5b505050506040513d601f19601f82011682018060405250610b759190810190611303565b50600160038585604051610b8a9291906116c6565b908152602001604051809103902060000160008282540392505081905550818181548110610bb457fe5b90600052602060002090600202016001015460038585604051610bd89291906116c6565b908152602001604051809103902060010160008282540392505081905550818181548110610c0257fe5b906000526020600020906002020160010154600160003373ffffffffffffffffffffffffffffffffffffffff1673ffffffffffffffffffffffffffffffffffffffff168152602001908152602001600020600082825403925050819055507f2acf52ade8849e7303367f27b9b847f56d7f880d292b5e3a45c4f276504dfdef33838381548110610c8e57fe5b9060005260206000209060020201600101548686604051610cb2949392919061175f565b60405180910390a1610cc48183610ebb565b505050610d14565b8080600101915050610996565b6040517f08c379a0000000000000000000000000000000000000000000000000000000008152600401610d0b9061180c565b60405180910390fd5b5050565b6060600260008373ffffffffffffffffffffffffffffffffffffffff1673ffffffffffffffffffffffffffffffffffffffff168152602001908152602001600020805480602002602001604051908101604052809291908181526020016000905b82821015610e575783829060005260206000209060020201604051806040016040529081600082018054600181600116156101000203166002900480601f016020809104026020016040519081016040528092919081815260200182805460018160011615610100020316600290048015610e355780601f10610e0a57610100808354040283529160200191610e35565b820191906000526020600020905b815481529060010190602001808311610e1857829003601f168201915b5050505050815260200160018201548152505081526020019060010190610d79565b505050509050919050565b600081604051602001610e7591906116f6565b6040516020818303038152906040528051906020012083604051602001610e9c91906116f6565b6040516020818303038152906040528051906020012014905092915050565b600081805490508310610ed057819050610f9f565b60008390505b6001838054905003811015610f5e57826001820181548110610ef457fe5b9060005260206000209060020201838281548110610f0e57fe5b906000526020600020906002020160008201816000019080546001816001161561010002031660029004610f4392919061103f565b50600182015481600101559050508080600101915050610ed6565b5081600183805490500381548110610f7257fe5b906000526020600020906002020160008082016000610f9191906110c6565b600182016000905550508190505b92915050565b604051806040016040528060008152602001600081525090565b828054600181600116156101000203166002900490600052602060002090601f016020900481019282601f1061100057805160ff191683800117855561102e565b8280016001018555821561102e579182015b8281111561102d578251825591602001919060010190611012565b5b50905061103b919061110e565b5090565b828054600181600116156101000203166002900490600052602060002090601f016020900481019282601f1061107857805485556110b5565b828001600101855582156110b557600052602060002091601f016020900482015b828111156110b4578254825591600101919060010190611099565b5b5090506110c2919061110e565b5090565b50805460018160011615610100020316600290046000825580601f106110ec575061110b565b601f01602090049060005260206000209081019061110a919061110e565b5b50565b61113091905b8082111561112c576000816000905550600101611114565b5090565b90565b60008135905061114281611a4e565b92915050565b600082601f83011261115957600080fd5b813561116c61116782611874565b611847565b9150818183526020840193506020810190508360005b838110156111b25781358601611198888261121b565b845260208401935060208301925050600181019050611182565b5050505092915050565b6000815190506111cb81611a65565b92915050565b60008083601f8401126111e357600080fd5b8235905067ffffffffffffffff8111156111fc57600080fd5b60208301915083600182028301111561121457600080fd5b9250929050565b600082601f83011261122c57600080fd5b813561123f61123a8261189c565b611847565b9150808252602083016020830185838301111561125b57600080fd5b6112668382846119fb565b50505092915050565b60008135905061127e81611a7c565b92915050565b60008151905061129381611a7c565b92915050565b6000602082840312156112ab57600080fd5b60006112b984828501611133565b91505092915050565b6000602082840312156112d457600080fd5b600082013567ffffffffffffffff8111156112ee57600080fd5b6112fa84828501611148565b91505092915050565b60006020828403121561131557600080fd5b6000611323848285016111bc565b91505092915050565b6000806020838503121561133f57600080fd5b600083013567ffffffffffffffff81111561135957600080fd5b611365858286016111d1565b92509250509250929050565b60006020828403121561138357600080fd5b600061139184828501611284565b91505092915050565b6000806000604084860312156113af57600080fd5b60006113bd8682870161126f565b935050602084013567ffffffffffffffff8111156113da57600080fd5b6113e6868287016111d1565b92509250509250925092565b60006113fe838361163c565b905092915050565b60006114128383611679565b60408301905092915050565b611427816119c5565b82525050565b6114368161197d565b82525050565b6000611447826118e8565b611451818561192e565b935083602082028501611463856118c8565b8060005b8581101561149f578484038952815161148085826113f2565b945061148b83611914565b925060208a01995050600181019050611467565b50829750879550505050505092915050565b60006114bc826118f3565b6114c6818561193f565b93506114d1836118d8565b8060005b838110156115025781516114e98882611406565b97506114f483611921565b9250506001810190506114d5565b5085935050505092915050565b600061151b8385611961565b93506115288385846119fb565b61153183611a3d565b840190509392505050565b60006115488385611972565b93506115558385846119fb565b82840190509392505050565b600061156c82611909565b6115768185611972565b9350611586818560208601611a0a565b80840191505092915050565b600061159d826118fe565b6115a78185611950565b93506115b7818560208601611a0a565b6115c081611a3d565b840191505092915050565b60006115d6826118fe565b6115e08185611972565b93506115f0818560208601611a0a565b80840191505092915050565b6000611609601183611961565b91507f416d6f756e74206e6f74207374616b65640000000000000000000000000000006000830152602082019050919050565b600060408301600083015184820360008601526116598282611592565b915050602083015161166e60208601826116a8565b508091505092915050565b60408201600082015161168f60008501826116a8565b5060208201516116a260208501826116a8565b50505050565b6116b1816119bb565b82525050565b6116c0816119bb565b82525050565b60006116d382848661153c565b91508190509392505050565b60006116eb82846115cb565b915081905092915050565b60006117028284611561565b915081905092915050565b6000602082019050611722600083018461142d565b92915050565b600060608201905061173d600083018661141e565b61174a602083018561142d565b61175760408301846116b7565b949350505050565b6000606082019050611774600083018761141e565b61178160208301866116b7565b818103604083015261179481848661150f565b905095945050505050565b60006040820190506117b4600083018561142d565b6117c160208301846116b7565b9392505050565b600060208201905081810360008301526117e2818461143c565b905092915050565b6000602082019050818103600083015261180481846114b1565b905092915050565b60006020820190508181036000830152611825816115fc565b9050919050565b600060208201905061184160008301846116b7565b92915050565b6000604051905081810181811067ffffffffffffffff8211171561186a57600080fd5b8060405250919050565b600067ffffffffffffffff82111561188b57600080fd5b602082029050602081019050919050565b600067ffffffffffffffff8211156118b357600080fd5b601f19601f8301169050602081019050919050565b6000819050602082019050919050565b6000819050602082019050919050565b600081519050919050565b600081519050919050565b600081519050919050565b600081519050919050565b6000602082019050919050565b6000602082019050919050565b600082825260208201905092915050565b600082825260208201905092915050565b600082825260208201905092915050565b600082825260208201905092915050565b600081905092915050565b60006119888261199b565b9050919050565b60008115159050919050565b600073ffffffffffffffffffffffffffffffffffffffff82169050919050565b6000819050919050565b60006119d0826119d7565b9050919050565b60006119e2826119e9565b9050919050565b60006119f48261199b565b9050919050565b82818337600083830152505050565b60005b83811015611a28578082015181840152602081019050611a0d565b83811115611a37576000848401525b50505050565b6000601f19601f8301169050919050565b611a578161197d565b8114611a6257600080fd5b50565b611a6e8161198f565b8114611a7957600080fd5b50565b611a85816119bb565b8114611a9057600080fd5b5056fea2646970667358221220590169921675c147c3ebed072e2487ceefea7b6f3881fc13fb7a85a599ccde4064736f6c63430006020033",
    "source": "// SPDX-License-Identifier: MIT\npragma solidity >= 0.4 .21 < 0.7 .0;\npragma experimental ABIEncoderV2;\n\nimport \"../node_modules/openzeppelin-solidity/contracts/token/ERC20/IERC20.sol\";\n\ncontract StakeApp {\n    IERC20 private stakingToken;\n\n    struct AssetStake {\n        string assetAddress;\n        uint amount;\n    }\n\n    struct UserStakes {\n        uint count;\n        uint amount;\n    }\n\n\n    mapping(address => uint)private balances;\n    mapping(address => AssetStake[])myStakesMapping;\n    mapping(string => UserStakes)userStakesMapping;\n\n\n    // Events\n    event StakeEvent(address _from, uint _value, string did);\n    event UnStakeEvent(address _from, uint _value, string did);\n\n    constructor(address tokenAddress)public {\n        stakingToken = IERC20(address(tokenAddress));\n    }\n\n    function balanceOfOwner()external view returns(uint256) {\n        return stakingToken.balanceOf(address(this));\n    }\n\n    function balanceOf(address _address)external view returns(uint) {\n        return balances[_address];\n    }\n\n    event ReceivedTokens(uint256 amount, address fromAccount);\n\n    function compareStrings(string memory a, string memory b)pure private returns(bool) {\n        return(keccak256(abi.encodePacked((a))) == keccak256(abi.encodePacked((b))));\n    }\n\n\n    function getMyStakes()public view returns(AssetStake[] memory) {\n        return myStakesMapping[msg.sender];\n    }\n\n    function getStakesOf(address _address)public view returns(AssetStake[] memory) {\n        return myStakesMapping[_address];\n    }\n\n    function getAllStakes(string[] memory dids)public view returns(UserStakes[] memory) {\n        UserStakes[] memory result = new UserStakes[](dids.length);\n\n        for (uint i = 0; i < dids.length; i ++) {\n            result[i] = userStakesMapping[dids[i]];\n        }\n        return result;\n    }\n\n    function remove(uint index, AssetStake[] storage array)private returns(AssetStake[] storage) {\n        if (index >= array.length) \n            return array;\n        \n\n\n        for (uint i = index; i < array.length - 1; i ++) {\n            array[i] = array[i + 1];\n        }\n        delete array[array.length - 1];\n        // array.length--;\n        return array;\n    }\n\n\n    function addStake(uint _amount, string calldata _did)payable external {\n\n        stakingToken.transferFrom(msg.sender, address(this), _amount);\n        // balances[address(this)] += _amount;\n\n        AssetStake[] storage m = myStakesMapping[msg.sender];\n        balances[msg.sender] += _amount;\n\n        for (uint i = 0; i < m.length; i ++) {\n            if (compareStrings(m[i].assetAddress, _did)) {\n                userStakesMapping[_did].amount += _amount;\n                m[i].amount = m[i].amount + _amount;\n                emit StakeEvent(msg.sender, _amount, _did);\n                return;\n            }\n        }\n\n        m.push(AssetStake(_did, _amount));\n        userStakesMapping[_did].amount += _amount;\n        userStakesMapping[_did].count += 1;\n        emit StakeEvent(msg.sender, _amount, _did);\n\n    }\n\n    function unStake(string calldata _did)external {\n\n        AssetStake[] storage m = myStakesMapping[msg.sender];\n        uint i = 0;\n        for (i = 0; i < m.length; i ++) {\n            if (compareStrings(m[i].assetAddress, _did)) {\n\n                stakingToken.transfer(address(msg.sender), m[i].amount);\n                userStakesMapping[_did].count -= 1;\n                userStakesMapping[_did].amount -= m[i].amount;\n                balances[msg.sender] -= m[i].amount;\n                emit UnStakeEvent(msg.sender, m[i].amount, _did);\n                remove(i, m);\n                return;\n            }\n        }\n        revert(\"Amount not staked\");\n    }\n}\n",
    "sourcePath": "/home/ash/Desktop/MyERC20/contracts/StakeApp.sol",
    "compiler": {
        "name": "solc",
        "version": "0.6.2+commit.bacdbe57.Emscripten.clang"
    },
    "schemaVersion": "3.2.0",
    "updatedAt": "2020-07-04T05:34:26.575Z",
    "networkType": "ethereum",
    "devdoc": {
        "methods": {}
    },
    "userdoc": {
        "methods": {}
    }
}